:020000040000fa
:10000000f07f0020653700003d41000043410000c3
:1000100000000000000000000000000000000000e0
:10002000000000000000000000000000631e00004f
:100030000000000000000000631e0000413b0000c3
:10004000631e0000631e0000631e0000631e0000ac
:10005000631e0000631e0000631e0000631e00009c
:10006000631e0000631e0000631e0000631e00008c
:10007000631e0000631e0000631e0000631e00007c
:10008000631e0000631e00004d390000631e000067
:10009000631e0000631e0000631e0000631e00005c
:1000a000631e0000631e0000631e0000631e00004c
:020000040000fa
:1000b000f8b5c046f8bc08bc9e46704745370000fe
:1000c000f8b5c046f8bc08bc9e4670471d37000016
:020000040000fa
:0800d000902400000100000073
:020000040000fa
:1000d800f0b5c64600b58cb004aff860381d0160b5
:1000e80042603b601a23fb1800221a801823fb1871
:1000f80000221a801623fb1800221a801423fb18ea
:1001080000221a801223fb1800221a801e23fb18d3
:10011800a94a1a801123fb1800221a701023fb1811
:1001280000221a70a54b00229b5eda179b185340d9
:100138000a2b1bdda14b02229b5eda179b1853404a
:100148000a2b13dd9d4b00229b5e9bb2db0bdbb2bf
:1001580019009a4b02229b5e002b01dd022300e06e
:1001680000231d22ba185b18137039e0934b022242
:100178009b5eda179b1853400a2b09dd8f4b002230
:100188009b5e002b04dd1d23fb1804221a7027e058
:100198008a4b02229b5eda179b1853400a2b09dd13
:1001a800864b00229b5e002b04da1d23fb180522d8
:1001b8001a7015e0814b00229b5eda179b1853409a
:1001c8000a2b09dd7d4b02229b5e002b04da1d23de
:1001d800fb1806221a7003e01d23fb1807221a7069
:1001e8001c23fb1800221a7000f08cfd1c203b1801
:1001f8001b78db003a68d2181a23fb1812881a8079
:100208003b181b78db003a68d31819883b181b7811
:10021800db003a68d3189a881823fb188a181a80c2
:100228003b181b78db003a68d2181623fb18528853
:100238001a803b181b78db003a68d31859883b189a
:100248001b78db003a68d318da881423fb188a185d
:100258001a801d23fb181b78072b01d900f04cfdd1
:100268009a00574bd3181b689f463b1d1b883a1da5
:100278005288391d0420095e89b20a3189b2381db5
:100288000624005f80b20a3080b211243c19162679
:10029800bd192d88a84618257d192d88ac46bd198d
:1002a8002e881a257d192d880390029101920093ba
:1002b800434662463100280000f0e0fe0300237048
:1002c80003f04ef803001a0012217b181a8011243b
:1002d8003b191b78002b18d07a181e203b1812885f
:1002e8001b889a4211d2374b1b880b3b9bb21ab220
:1002f8003b1d9a80344b1b880b3b9bb21ab23b1dab
:10030800da803b187a1812881a803b1d1b883a1d20
:100318005288391d0420095e89b20a3189b2381d14
:100328000624005f80b20a3080b210243c191425dc
:100338007d192d88a8461a257d192e88b4461626bb
:10034800bd192e881a257d192d88039002910192d6
:100358000093434662463100280000f08ffe0300f8
:10036800237002f0fdff03001a0012217b181a8087
:1003780010243b191b78002b01d100f0aefc7a1831
:100388001e203b1812881b889a4201d300f0a5fc56
:100398000c4b1b880b3b9bb21ab23b1d9a800a4b35
:1003a8001b880b3b9bb21ab23b1dda803b187a18ac
:1003b80012881a8000f091fc211c000080000020a7
:1003c8002c3f000086000020980000203b1d1b8861
:1003d8003a1d5288391d0420095e89b20a3989b24a
:1003e800381d0624005f80b20a3080b211243c19ff
:1003f8001426bd192d88a84618257d192d88ac46c8
:10040800bd192e881a257d192d8803900291019215
:100418000093434662463100280000f02ffe030097
:10042800237002f09dff03001a0012217b181a8026
:1004380011243b191b78002b18d07a181e203b1862
:1004480012881b889a4211d2d84b1b880b339bb257
:100458001ab23b1d9a80d64b1b880b3b9bb21ab233
:100468003b1dda803b187a1812881a803b1d1b88be
:100478003a1d5288391d0420095e89b20a3989b2a9
:10048800381d0624005f80b20a3080b210243c195f
:1004980014257d192d88a8461a257d192e88b4465d
:1004a8001626bd192e881a257d192d8803900291cc
:1004b80001920093434662463100280000f0defdb9
:1004c8000300237002f04cff03001a0012217b186e
:1004d8001a8010243b191b78002b01d100f0fffb78
:1004e8007a181e203b1812881b889a4201d300f004
:1004f800f6fbae4b1b880b339bb21ab23b1d9a809e
:10050800ab4b1b880b3b9bb21ab23b1dda803b18e6
:100518007a1812881a8000f0e2fb3b1d1b883a1dee
:100528005288391d0420095e89b20a3189b2381d02
:100538000624005f80b20a3880b211243c191626be
:10054800bd192d88a84618257d192d88ac46bd19da
:100558002e881a257d192d88039002910192009307
:10056800434662463100280000f088fd03002370ee
:1005780002f0f6fe03001a0012217b181a801124db
:100588003b191b78002b18d07a181e203b181288ac
:100598001b889a4211d2854b1b880b3b9bb21ab21f
:1005a8003b1d9a80824b1b880b339bb21ab23b1db2
:1005b800da803b187a1812881a803b1d1b883a1d6e
:1005c8005288391d0420095e89b20a3189b2381d62
:1005d8000624005f80b20a3880b210243c19142522
:1005e8007d192d88a84618257d192e88b44616260b
:1005f800bd192e8818257d192d8803900291019226
:100608000093434662463100280000f037fd03009e
:10061800237002f0a5fe03001a0012217b181a802d
:1006280010243b191b78002b00d15ae37a181e209e
:100638003b1812881b889a4200d352e35b4b1b88f5
:100648000b3b9bb21ab23b1d9a80594b1b880b334c
:100658009bb21ab23b1dda803b187a1812881a80ae
:100668003fe33b1d1b883a1d5288391d0420095e53
:1006780089b20a3989b2381d0624005f80b20a3867
:1006880080b211243c191426bd192d88a8461825b6
:100698007d192d88ac46bd192e881a257d192d88ff
:1006a800039002910192009343466246310028006c
:1006b80000f0e4fc0300237002f052fe03001a006d
:1006c80012217b181a8011243b191b78002b18d093
:1006d8007a181e203b1812881b889a4211d2334b75
:1006e8001b880b339bb21ab23b1d9a80304b1b8878
:1006f8000b339bb21ab23b1dda803b187a1812886a
:100708001a803b1d1b883a1d5288391d0420095e3a
:1007180089b20a3989b2381d0624005f80b20a38c6
:1007280080b210243c1914257d192d88a846182557
:100738007d192e88b4461626bd192e8818257d19d0
:100748002d8803900291019200934346624631003e
:10075800280000f093fc0300237002f001fe030060
:100768001a0012217b181a8010243b191b78002bc1
:1007780000d1b8e27a181e203b1812881b889a42ca
:1007880000d3b0e2094b1b880b339bb21ab23b1d56
:100798009a80074b1b880b339bb21ab23b1dda8039
:1007a8003b187a1812881a809de2c04686000020fd
:1007b800980000203b1d1b883a1d5288391d0420d3
:1007c800095e89b20a3189b2381d0624005f80b2f9
:1007d8000a3080b211243c191626bd192d88a84666
:1007e80018257d192d88ac46bd192e881a257d1926
:1007f8002d8803900291019200934346624631008e
:10080800280000f03bfc0300237002f0a9fd030060
:100818001a0012217b181a8011243b191b78002b0f
:1008280018d07a181e203b1812881b889a4211d2b9
:10083800d64b1b880b3b9bb21ab23b1d9a80d44bfc
:100848001b880b3b9bb21ab23b1dda803b187a1807
:1008580012881a803b1d1b883a1d5288391d0420b6
:10086800095e89b20a3189b2381d0624005f80b258
:100878000a3880b211243c191626bd192d88a846bd
:1008880018257d192d88ac46bd192e881a257d1985
:100898002d880390029101920093434662463100ed
:1008a800280000f0ebfb0300237002f059fd030061
:1008b8001a0012217b181a8011243b191b78002b6f
:1008c80000d112e27a181e203b1812881b889a421f
:1008d80000d30ae2ad4b1b880b3b9bb21ab23b1dff
:1008e8009a80ab4b1b880b339bb21ab23b1dda8044
:1008f8003b187a1812881a80f7e13b1d1b883a1dad
:100908005288391d0420095e89b20a3989b2381d16
:100918000624005f80b20a3880b211243c191426dc
:10092800bd192d88a84618257d192d88ac46bd19f6
:100938002e881a257d192d88039002910192009323
:10094800434662463100280000f098fb03002370fc
:1009580002f006fd03001a0012217b181a801124e8
:100968003b191b78002b18d07a181e203b181288c8
:100978001b889a4211d2854b1b880b339bb21ab243
:100988003b1d9a80824b1b880b339bb21ab23b1dce
:10099800da803b187a1812881a803b1d1b883a1d8a
:1009a8005288391d0420095e89b20a3989b2381d76
:1009b8000624005f80b20a3080b211243c19142644
:1009c800bd192d88a84618257d192d88ac46bd1956
:1009d8002e881a257d192d88039002910192009383
:1009e800434662463100280000f048fb03002370ac
:1009f80002f0b6fc03001a0012217b181a80112499
:100a08003b191b78002b00d171e17a181e203b1886
:100a180012881b889a4200d369e15c4b1b880b3310
:100a28009bb21ab23b1d9a80594b1b880b3b9bb259
:100a38001ab23b1dda803b187a1812881a8056e1e0
:100a48003b1d1b883a1d5288391d0420095e89b256
:100a58000a3989b2381d0624005f80b20a3080b294
:100a680010243c1914257d192d88a8461a257d19ae
:100a78002e88b4461626bd192e881a257d192d886c
:100a88000390029101920093434662463100280088
:100a980000f0f4fa0300237002f062fc03001a006d
:100aa80012217b181a8010243b191b78002b18d0b0
:100ab8007a181e203b1812881b889a4211d2334b91
:100ac8001b880b339bb21ab23b1d9a80304b1b8894
:100ad8000b3b9bb21ab23b1dda803b187a1812887e
:100ae8001a803b1d1b883a1d5288391d0420095e57
:100af80089b20a3189b2381d0624005f80b20a30f3
:100b080080b210243c1914257d192d88a8461a2571
:100b18007d192e88b4461626bd192e881a257d19ea
:100b28002d8803900291019200934346624631005a
:100b3800280000f0a3fa0300237002f011fc030060
:100b48001a0012217b181a8010243b191b78002bdd
:100b580000d1cee07a181e203b1812881b889a42d2
:100b680000d3c6e0094b1b880b3b9bb21ab23b1d56
:100b78009a80074b1b880b3b9bb21ab23b1dda804d
:100b88003b187a1812881a80b3e0c0468600002005
:100b9800980000203b1d1b883a1d5288391d0420ef
:100ba800095e89b20a3989b2381d0624005f80b20d
:100bb8000a3880b210243c1914257d192d88a846be
:100bc80018257d192e88b4461626bd192e88182595
:100bd8007d192d8803900291019200934346624645
:100be8003100280000f04afa0300237002f0b8fb35
:100bf80003001a0012217b181a8010243b191b7855
:100c0800002b18d07a181e203b1812881b889a428d
:100c180011d2484b1b8809339bb21ab23b1d9a80ec
:100c2800454b1b880b339bb21ab23b1dda803b182d
:100c38007a1812881a803b1d1b883a1d5288391d64
:100c48000420095e89b20a3189b2381d0624005f82
:100c580080b20a3880b210243c1914257d192d88d9
:100c6800a84618257d192e88b4461626bd192e8843
:100c780018257d192d88039002910192009343460f
:100c880062463100280000f0f9f90300237002f0f1
:100c980067fb03001a0012217b181a8010243b19e5
:100ca8001b78002b27d07a181e203b1812881b8827
:100cb8009a4220d21f4b1b880b3b9bb21ab23b1d9a
:100cc8009a801d4b1b880b339bb21ab23b1dda80ee
:100cd8003b187a1812881a800de0c0460ce0c0460e
:100ce8000ae0c04608e0c04606e0c04604e0c04648
:100cf80002e0c04600e0c0461c217b181a787b1829
:100d080001321a701c23fb183822b9181a780b788c
:100d18009a4201d2fff76afafa683b1d10001900df
:100d280008231a0003f0def9f868bd4608b004bcd1
:0c0d38009046f0bd8600002098000020ce
:020000040000fa
:100d44000023f0b506001500b1b00791039307998d
:100d54000b78002b00d10de101235b420c9310ab07
:100d640000240e9380230b940d940f930b5d002ba2
:100d740001d0252b2ad1002c06d02200300003f00c
:100d84006df8079b1b190793079b1a78252a00d037
:100d9400e5e0013304930793022301219c461027c5
:100da400079803782b2b1ad025d8202b1ad0232b65
:100db4001dd02a2b28d002f007fe0d90079b1a782d
:100dc400303a092a31d801330793f7e70134cde7e4
:100dd4000b9b05930b4301300b930790e0e704232f
:100de4000b9a0fe00b9b0593059a08230ae00b9bd3
:100df40005933b43efe72d2bead0302bd9d1624644
:100e04000b9b05931343e6e72b6801301a1d1b68ff
:100e140007902a600d93002b07da0b9a5b42059228
:100e2400012205990d934a400b920b9bda0702d5d8
:100e3400022293430b93079b1a782e2a0ed1002289
:100e4400581c0c9207905a782a2a28d10233079307
:100e54002b681a1d1b682a6005930c9307a802f0df
:100e64001bff079b0700187803f05bf9692800d182
:100e740083e035dc632800d1dde01bdc252800d1cc
:100e8400eae0612859d0049b0122079300235242cf
:100e94000c920b930d93784900930232e7e002f031
:100ea40093fd0c90079b1a78303a092ad6d801335f
:100eb4000793f7e7642860d06728e4dc2a00390048
:100ec40008a802f0a3ff002800d1b0e0079b0ba9fb
:100ed4005a1c07921b7808aa300003f037f93de04a
:100ee400702800d17de016dc6e2800d198e06f28d0
:100ef400c9d12b000022390008a801f046fd0028c2
:100f040000d194e0079b08aa01330ba93000079392
:100f140003f01af922e0752840d078284fd07328be
:100f2400b1d1802f00d082e0079b2a680133079358
:100f3400131d2b601268002389e02a00390008a8d9
:100f440002f064ff002800d171e0079b0ba95a1c32
:100f540007921b7808aa300003f0f8f82418039bc2
:100f64001c19a34200dc84e04f22444b1a60012385
:100f74005b420393039831b0f0bd2b00012239008a
:100f840008a801f002fd002851d0079b08aa0133ec
:100f94000ba93000079301f057fddfe72b00002277
:100fa400390008a801f0f1fc002840d0079b08aaea
:100fb40001330ba93000079303f0c6f8cee72b00ea
:100fc4000022390008a801f0e0fc00282fd0079b7c
:100fd4005a1c07921b7808aa0ba9300003f0b6f834
:100fe400bce72b000022f02108a801f0cefc002869
:100ff4001dd0079b099a01330793089b13430dd116
:101004001d4f1637380003f009f8390002000b9b16
:1010140000930d9b300001f067ff9fe77823dae728
:10102400039b39001a1908a82b0002f066f9079be4
:101034000133079393e7802ff9d1079b013307937b
:101044002b681a1d1b682a6008aa137001230ba9b8
:10105400300003f07df881e7802fe8d10122079b5f
:101064000549013307930b9b049300930d9b1c319b
:10107400d0e703946be6c046aa3f0000940000202a
:020000040000fa
:10108400f0b589b000af05000c0010001900bb1dbd
:101094002a1c1a803b1d221c1a80bb1c021c1a80ad
:1010a4003b000a1c1a80ba1cbb1d12881b88d31a69
:1010b4009ab21e26bb191a803a003b1d12881b885f
:1010c400d31a9ab21c203b181a803823082294465b
:1010d400bc446344302408217d1829191a880b88dc
:1010e400d31a9ab21a23fb181a803c2208239c466e
:1010f400bc446244342508217b185b1912881b8880
:10110400d31a9ab218217b181a803b1800229b5ece
:101114005b42ba1d0021525e11000822b818021960
:1011240012888a1a5a43bb1900215b5e391d0020bc
:10113400095e080008217c1861190988411a4b438b
:10114400d318180002f04eff04000d001a23fb18f8
:1011540000229b5e5b421c203a180021525e5a43d7
:10116400bb1900215b5e182179180020095e4b43ee
:10117400d318180002f036ff02000b0020002900eb
:1011840001f0a1fb03000c003b617c611a23fb18f6
:1011940000229b5e3a1d0021525e11003425082274
:1011a400b818421912888a1a5a4318217b18002544
:1011b4005b5fb91d0025495f0800302408217918b8
:1011c40009190988411a4b43d31a180002f00aff7f
:1011d40004000d001a23fb1800229b5e5b421c20b6
:1011e4003a180021525e5a43bb1900215b5e182154
:1011f40079180020095e4b43d318180002f0f2fe60
:1012040002000b002000290001f05dfb03000c002c
:10121400bb60fc60002200233869796902f072fb2c
:10122400031e5cd00022304b3869796902f048fb18
:10123400031e54d000220023b868f96802f062fb50
:10124400031e4cd00022284bb868f96802f038fb22
:10125400031e44d0bb1d1b88180002f0c3fe04000b
:101264000d00bb1900229b5e180002f0bbfeba6899
:10127400fb6800f04bfd02000b002000290000f089
:1012840075fb03000c001800210002f07bfd030035
:101294009ab2164b1a803b1d1b88180002f0a2fe5e
:1012a40004000d001c203b1800229b5e180002f075
:1012b40099feba68fb6800f029fd02000b002000cb
:1012c400290000f053fb03000c001800210002f079
:1012d40059fd03009ab2064b1a80012300e0002353
:1012e4001800bd4609b0f0bd0000f03f86000020a4
:0412f400980000203e
:020000040000fa
:1012f8005000002030000000000000009c0000208a
:10130800c801000001000000280028002c01050089
:101318007c012800780005004902280087000500a4
:10132800280028000500f000000040012d000500fd
:1013380055004001a00005005500550005001801a2
:1013480028006d013200050028006d0105004b00e2
:101358002800b301500005007800b30105002d00f6
:10136800c800000005002800550055007701050059
:10137800cc0155000500c8007c014501aa00050004
:101388007c0178000500cd007c01f00050000500cc
:10139800a401180105002d00f401280005001d0115
:1013a8002102000005002800f9018200d70005008d
:1013b80021025500280005004902280005005f00a9
:1013c800f802280005009001d002b30128000500aa
:1013d800d0025a0005002d00760255005f00050076
:1013e800a802860150000500d002d7000500af0012
:1013f8005802d70078000500a802860105005a00a7
:10140800f401aa00e10005005802d70005009b007e
:1014180058026d01280005002602d7000500730058
:101428008002270105009100d200b301ae0105003a
:10143800a9019001af000500a9016d018200050016
:1014480077016d010500460018016d015f00050078
:101458004a015a000500eb001801aa000500c30064
:101468005a008200c8000500cd00aa004b00050004
:101478007d00aa00280005007d00aa000500640080
:10148800a500aa0005009600cd00aa0005006e0080
:10149800f000d20005006e0055006d0196000500b1
:1014a8005500900104010500a000900105005000be
:1014b8007c017800280005009f0178000500550090
:1014c8005802040150000500a802040105005a0052
:1014d8009b00002001000000010000003200000015
:1014e80080000020060000000000000088000020a6
:1014f80004000000000000009a0000200100000025
:10150800000000008600002002000000000000002b
:101518009800002002000000000000006402002083
:1015280008000000010000000a000a000000000096
:101538008c000020040000000000000000000020d3
:10154800500000000000000090000020080000008b
:1015580000000000000000000000000066666666eb
:020000040000fa
:1015680080b58ab000aff860b9607a603b6000234c
:101578007b6200233b620023fb611b23fb180022d4
:101588001a70bb68002b02d0fb68002b07d13b68a0
:10159800002b00d1dae07b68002b00d1d6e06f4b3e
:1015a8005b68072213407b617b69002b11d0bb6805
:1015b800002b03d0bb680122134006d13b68002be7
:1015c80007d03b680122134003d01b23fb181b786c
:1015d800bfe0fb68002b01d10023bb607b68002bb8
:1015e80005d100233b6002e05c4b9b6a3b615b4b8f
:1015f8001b7edbb21a0004231340042bf4d0574b94
:101608005b8b9bb2554a04210b439bb25383534bcc
:101618001b7edbb25149802252421343dbb20b7668
:101628003a68bb689a4203d93a68bb68d31afb6127
:101638007b69002b08d03b685b083b60bb685b0894
:10164800bb60fb695b08fb61c046444b1b7edbb299
:101658001a0001231340012bf7d163e07a6abb68b3
:101668009a421ad07b69002b09d1fa687b6ad31891
:101678001a783a4b9a627b6a01337b621de07b6a77
:101688005b00fa68d3181b881a00344bd205d20db8
:101698009a627b6a01337b620fe0fb69002b0cd0f6
:1016a8007b69002b03d12d4bff229a6202e02b4b62
:1016b8002b4a9a62fb69013bfb613b68002b09d10d
:1016c800c046264b1b7edbb21a0001231340012bb8
:1016d800f7d127e0c046214b1b7edbb21a0004235a
:1016e8001340042bf7d11d4b9b6a3b613a6a3b6858
:1016f8009a4217d27b69002b08d13b6a5a1c3a627e
:101708007a68d3183a69d2b21a700be03b699ab278
:101718003b6a591c39625b007968cb18d205d20d37
:1017280092b21a807a6abb689a4297d1fb69002bf9
:1017380094d1c046094b1b7edbb21a00022313402a
:10174800022bf7d11b23fb1801221a701b23fb184d
:101758001b781800bd460ab080bdc046000c004288
:04176800ff0100007d
:020000040000fa
:10176c0080b58ab000aff860b9607a603b60002346
:10177c007b6200233b620023fb611b23fb180022ce
:10178c001a70bb68002b02d0fb68002b07d13b689a
:10179c00002b00d1dae07b68002b00d1d6e06f4b38
:1017ac005b68072213407b617b69002b11d0bb68ff
:1017bc00002b03d0bb680122134006d13b68002be1
:1017cc0007d03b680122134003d01b23fb181b7866
:1017dc00bfe0fb68002b01d10023bb607b68002bb2
:1017ec0005d100233b6002e05c4b9b6a3b615b4b89
:1017fc001b7edbb21a0004231340042bf4d0574b8e
:10180c005b8b9bb2554a04210b439bb25383534bc6
:10181c001b7edbb25149802252421343dbb20b7662
:10182c003a68bb689a4203d93a68bb68d31afb6121
:10183c007b69002b08d03b685b083b60bb685b088e
:10184c00bb60fb695b08fb61c046444b1b7edbb293
:10185c001a0001231340012bf7d163e07a6abb68ad
:10186c009a421ad07b69002b09d1fa687b6ad3188b
:10187c001a783a4b9a627b6a01337b621de07b6a71
:10188c005b00fa68d3181b881a00344bd205d20db2
:10189c009a627b6a01337b620fe0fb69002b0cd0f0
:1018ac007b69002b03d12d4bff229a6202e02b4b5c
:1018bc002b4a9a62fb69013bfb613b68002b09d107
:1018cc00c046264b1b7edbb21a0001231340012bb2
:1018dc00f7d127e0c046214b1b7edbb21a00042354
:1018ec001340042bf7d11d4b9b6a3b613a6a3b6852
:1018fc009a4217d27b69002b08d13b6a5a1c3a6278
:10190c007a68d3183a69d2b21a700be03b699ab272
:10191c003b6a591c39625b007968cb18d205d20d31
:10192c0092b21a807a6abb689a4297d1fb69002bf3
:10193c0094d1c046094b1b7edbb21a000223134024
:10194c00022bf7d11b23fb1801221a701b23fb1847
:10195c001b781800bd460ab080bdc0460008004286
:04196c00ff01000077
:020000040000fa
:10197000f0b40125ed070f005f405ad48b4200d12f
:10198000824205d950404240504059404b40594056
:101990004e18760ddf187f0d3bd0741c640529d0de
:1019a000f41b352c26d80e0ddb022b43db0ac902b3
:1019b0002943c9121700202c1ed2e741e2405740ac
:1019c000e3415a40a340e3405a4000248018594163
:1019d0000ad3b21c520521d0c207012f6241170061
:1019e0004008cb0718434908013636054208af4185
:1019f00060417141f0bc7047203c06d01f00e741b8
:101a0000e3405f400024012a6741c0186141ebd3e5
:101a1000dfe7002eeed129400020ebe7013631054b
:101a20000020e7e7e742e5d10020c143090dc904e2
:101a3000e0e76b400e00871a9e4104d26e40c01b47
:101a4000b141d21973414e18df18ac0ae642e9d20f
:101a5000760d7f0d31d0f41b362ccbd8b4460e0d4d
:101a6000db022b43db0ac9022943c90a012c32d805
:101a700004d1d4075208df073a435b08ef0a6442f7
:101a8000904199411ed0002239424dd12419404144
:101a900049410124394204d10134001849413942f5
:101aa000fad06246a24204d9361b013e3605891996
:101ab000a0e7f10ac90700209ce736429ad100202e
:101ac000002197e70200224394d0b842ded2010001
:101ad00020002024e3d1202c13dd203ce24117001c
:101ae000a240e2405740e3415a40a340e3405a40fd
:101af000012fbf410137174300227c429841914199
:101b00000ce01700e741e2405740e3415a40a34050
:101b1000e3405a407c429041994100220f0303d296
:101b2000013e241940414941013e36054708ac4178
:081b300050417141f0bc704707
:020000040000fa
:101b380090b587b002af0200b9600f23fb181a7086
:101b48005b4b1b7801225340dbb2002b45d0594b2d
:101b5800180000f087fb584c3800574b19685a6832
:101b680000f0e0fa3b002000190008231a0002f0f8
:101b7800b9fa514c380051494f4a392300930b00a8
:101b880011685268fef7a4fa3b00200019000823e8
:101b98001a0002f0a7fa484c3800474b19685a68ef
:101ba80001f03efb3b002000190008231a0002f058
:101bb80099fa414c3800404b19685a6801f010f9fd
:101bc8003b002000190008231a0002f08bfa3c4b56
:101bd8001b685a1c3a4b1a6059e03a4b1b780a2189
:101be800180001f0f3f80b00dbb2002b01d100f074
:101bf80035f9304b180000f035fb2f4c38002e4bd0
:101c080019685a6800f08efa3b0020001900082372
:101c18001a0002f067fa284c3800274b19685a68ee
:101c280001f0fefa3b002000190008231a0002f018
:101c380059fa214b1b88244a934228d91e4b5a88ab
:101c48009023ff339a4222d91d4b00221a601a4c66
:101c58003800194b6a46596811601b680a220a2124
:101c680001f032f83b002000190008231a0002f0a6
:101c780039fa164b180001f0d7ff104b392118001c
:101c880001f0e6f900f0d8ff094b00221a700d4b5d
:101c98001b78002b02d10b4b32221a70094b1b7890
:101ca800013bdab2074b1a70c046bd4605b090bd7d
:101cb8009a00002080000020640200209c00002080
:101cc800880000209b000020cf020000ffff0000da
:020000040000fa
:101cd80008d1002806d1f54204d801d3002a01d141
:101ce8006d0d09d10020c143090dc904f0bdf9d11a
:101cf8001242f7d1640df5d00020c14349054908c7
:101d0800a6e000206146f0bdf0b50127ff070e00f0
:101d18005e403e40b446be0a4c18dd18f442d7d2a5
:101d2800f542e4d2640decd06d0dead06419c90215
:101d38003943460dc0023143db023b43db0a10b492
:101d48008e4685b297b26f43140c6c433e0ca419af
:101d5800260c2404bfb227439cb26c43a419190c67
:101d68006943250ca4b249190d04090c6419000c27
:101d780095b245433e0c76193743bfb2360c150c65
:101d88004543ad19a6b2240cad192e0437432e0cc9
:101d980036199db24543ad19acb22e0c89191d0cec
:101da80045436d182e04290c3443704680b295b211
:101db80045433e0c76193743bfb2360c150c4543e4
:101dc800ad19a6b2ad19240c2e0437432e0c3619c2
:101dd8009db24543ad19acb22e0c89191d0c454373
:101de8006d182e043443290c75462d0c90b26843a7
:101df8003e0c80190604bfb23e43070ca0b23f1840
:101e0800120c6a43d019020c80b2240ca4189ab29e
:101e18006a43121914042043120c89181b0c6b43d3
:101e2800c91810bc01273d05294203d1b619404104
:101e38004941013cff077d0d013d641b0bdb6d0033
:101e4800ac4209da240500254208be4168416141d7
:0a1e580066463143f0bd54e74ee743
:020000040000fa
:021e6200fee799
:020000040000fa
:101e6400f0b587b002af01f0affa87235b0096218b
:101e7400180001f00dfa524b1900002000f0b9fcd3
:101e84000a2001f096f94f4b0721180001f050fb8e
:101e9400062001f08ef9dc21aa2001f0f9f94a4b61
:101ea4000e21180001f044fb484b1a6813009b00f4
:101eb4009b189a009b184649180000f04dff030038
:101ec4001a000f243b191a70404b1a6813009b0028
:101ed4009b189a009b183a1912783d494a439a1a5a
:101ee400fa239900100000f037ff03001a000e20b7
:101ef4003b181a70354b1b689bb21a1c9200d318fe
:101f04001a1c91001a1c0b1cd3189ab23b191b788b
:101f14009bb2191c4901c91a8900cb18191c090163
:101f2400cb1a5b019bb2d31a99b205003b181b78fc
:101f34009bb2fa22920053439ab20c26bb198a1a16
:101f44001a803b0000221a605a601a813b0030223a
:101f54001a7091235b001900f02001f099f93b19e4
:101f64001c787b191b78ba1912881a493800019217
:101f7400009323000a000a2102f08cf83b000a2196
:101f8400180001f0d5fab4235b00134a19001000bd
:101f940001f07ef9012001f00cf9104b102118001a
:101fa40001f0c6fac8235900b42398000023009313
:101fb4005023502201f0c4f8c046bd4605b0f0bd20
:101fc400ffff0000b83b0000c03b00008800002079
:101fd40060ea0000d03b000012020000e03b000079
:020000040000fa
:101fe400b0b582b000af05000c0010001900bb1d95
:101ff4002a1c1a803b1d221c1a80bb1c021c1a803e
:102004003b000a1c1a80912001f016fcbb1d1b88a2
:10201400dbb2180001f032fc922001f00dfcbb1d74
:1020240000229b5e1b121bb2dbb2180001f026fcdf
:10203400932001f001fc3b1d1b88dbb2180001f06a
:102044001dfc942001f0f8fb3b1d00229b5e1b123b
:102054001bb2dbb2180001f011fc952001f0ecfb7f
:10206400bb1c1b88dbb2180001f008fc962001f0b1
:10207400e3fbbb1c00229b5e1b121bb2dbb21800ed
:1020840001f0fcfb972001f0d7fb3b001b88dbb27f
:10209400180001f0f3fb982001f0cefb3b00002276
:1020a4009b5e1b121bb2dbb2180001f0e7fb63203e
:1020b40001f0c2fb18243b191b88db0a9bb2dbb27c
:1020c400180001f0dbfb642001f0b6fb3b191b8810
:1020d4005b11dbb23f221340dbb2180001f0cefbf0
:1020e400652001f0a9fb3b191b88dbb21f221340ba
:1020f400dbb2180001f0c2fb902001f09dfb1c2311
:10210400fb181b78002b03d0b02001f0b7fb02e0d2
:10211400902001f0b3fb8021902001f095fcc04693
:06212400bd4602b0b0bd93
:020000040000fa
:02212a007047fc
:020000040000fa
:10212c0090b585b000aff8603b1d19605a60494b03
:10213c0000229b5e132b04dc464b00229b5e133368
:10214c0025da444b00229a5efe23ff339a4203ddcc
:10215c00404b32221a8009e03e4b00229b5e3e4ae5
:10216c00934203da3b4b322252421a803b1d1c88ad
:10217c00384b00229b5e0a21180000f0bbfc0300c8
:10218c001bb29bb2e3189bb21ab23b1d9a80314b27
:10219c0002229b5e132b04dc2e4b02229b5e13331c
:1021ac0025da2c4b02229a5efe23ff339a4203dd82
:1021bc00284b32225a8009e0264b02229b5e264a8b
:1021cc00934203da234b322252425a803b1d5c88e5
:1021dc00204b02229b5e0a21180000f08bfc0300ae
:1021ec001bb29bb2e31a9bb21ab23b1dda803b1da9
:1021fc0004229b5e092b03dc3b1d0a229a8008e01b
:10220c003b1d04229b5e154a934202dd3b1d134a83
:10221c009a803b1d06229b5e092b03dc3b1d0a2288
:10222c00da800ae03b1d06229a5eeb235b009a42a1
:10223c0003dd3b1deb225200da80fa683b1d1000d7
:10224c00190008231a0001f04bfff868bd4605b0d1
:10225c0090bdc0468000002003feffff1603000067
:020000040000fa
:10226c0090b587b000af7860042001f079fe0300d0
:10227c001a0014217b181a70384b20225a610c2436
:10228c003a19781808230821fff76afa334b2022f1
:10229c009a6121007b189b789ab27b18db789bb2f1
:1022ac001b029bb2d3189bb21ab27b681a807b18a4
:1022bc001b799ab27b185b799bb21b029bb2d31829
:1022cc009ab27b68023312b21a807b189b799ab24d
:1022dc007b18db799bb21b029bb2d3189ab27b683a
:1022ec00043312b21a801723fb1800221a702ce048
:1022fc0017217b181b785b007a68d31800229b5e31
:10230c009bb21a0080231b0113400ad07b181b7848
:10231c005b007a68d31800229b5e114a13431bb2f0
:10232c0007e01723fb181b785b007a68d318002290
:10233c009b5e17203a181278520079688a1813801d
:10234c003b181a783b1801321a701723fb181b78ac
:10235c00022bcdd9c046bd4607b090bd004400410c
:04236c0000f0ffff7f
:020000040000fa
:10237000b0b582b000af05000c0010001900bb1d05
:102380002a1c1a803b1d221c1a80bb1c021c1a80ae
:102390003b000a1c1a80992001f050fabb1d1b88d3
:1023a000dbb2180001f06cfa9a2001f047fabb1d6d
:1023b00000229b5e1b121bb2dbb2180001f060fa18
:1023c0009b2001f03bfa3b1d1b88dbb2180001f09b
:1023d00057fa9c2001f032fa3b1d00229b5e1b1233
:1023e0001bb2dbb2180001f04bfa9d2001f026fa77
:1023f000bb1c1b88dbb2180001f042fa632001f01d
:102400001dfa3b001b88db0a9bb2dbb2180001f00f
:1024100037fa642001f012fa3b001b885b11dbb233
:102420003f221340dbb2180001f02afa652001f0c8
:1024300005fa3b001b88dbb21f221340dbb21800f9
:1024400001f01efa902001f0f9f91823fb181b780f
:10245000002b03d0602001f013fa02e0402001f0cd
:102460000ffa4021902001f0f1fac046bd4602b0bb
:02247000b0bdfd
:020000040000fa
:022472007047b1
:020000040000fa
:1024740080b584b000af786039600023fb600b2323
:10248400fb1800221a703b68002b01d1304b3b60d3
:10249400304b1a682f4b02218a431a60c0462d4bd9
:1024a400db69002bfbd17b68002b3ed07b681a686c
:1024b4003b685b089a4238d87b681b685b0019004c
:1024c400386800f049fc0300013bfb60fb68fe2b0d
:1024d40001d9ff23fb601f4b1a681e4b1e490a409b
:1024e4001a601c4b19687b689a687b685b681a439e
:1024f400184b0a431a60174bfa68d2b21a73154b79
:102504005a68144b07218a435a60124b59687b68f6
:10251400da68104b0a435a60c0460e4bdb69002b45
:10252400fbd10b23fb1801221a700a4b1a68094bc2
:1025340002210a431a60c046064bdb69002bfbd11b
:102544000b23fb181b781800bd4604b080bdc046a1
:0c255400006cdc02000c0042ffffffcf17
:020000040000fa
:10256000f0b5060085b00f0015001c008b4265d841
:1025700001d1824262d82100280001f081fd39009a
:102580000090300001f07cfd009b21001b1a1a0016
:102590002800039301f068fd00900191019bbb426c
:1025a00046d802d1009bb34242d8009b019c039abb
:1025b00001200021f61aa74101f056fd039b002bd4
:1025c0002fd0019b009adb0754081c43019b5d0838
:1025d000039b9c46bd422ed801d1b4422bd8320079
:1025e0003b00121bab41012692185b410027b61835
:1025f0005f4101235b429c446346002bead1801972
:102600007941039a04000d003000390001f020fdeb
:10261000039a06000f0001f027fd241a8d412000c7
:1026200029000a9b002b01d01e605f6005b0f0bd41
:1026300000200021c2e7b6197f41dae7002000211f
:02264000efe7c2
:020000040000fa
:1026440090b583b000af02003960fb1d1a70fb1d0a
:102654001b787f2b28d82f4afb1d1b785bb29b0865
:10266400c0339b009b58fa1d1278110003220a40c4
:10267400d200ff2191400a00d2431a4011003b6866
:102684009b01ff221a40fb1d1b7818000323034003
:10269400db009a401f48fb1d1b785bb29b080a4372
:1026a400c0339b001a5031e01b4afb1d1b781900f4
:1026b4000f230b40083b9b0806339b00d3180433bd
:1026c4001b68fa1d1278110003220a40d200ff2170
:1026d40091400a00d2431a4011003b689b01ff223b
:1026e4001a40fb1d1b78180003230340db009a40ab
:1026f4000948fb1d1b781c000f232340083b9b0843
:102704000a4306339b00c31804331a60c046bd460f
:0c27140003b090bd00e100e000ed00e02b
:020000040000fa
:1027200080b500af01f089fb0c21102001f0d0fa38
:102730008121042001f0ccfa012000f015fc632176
:10274000142001f0c5fa0021152001f0c1fa03217f
:10275000162001f0bdfa0321172001f0b9fa0b2170
:10276000182001f0b5fadf21192001f0b1fa01219a
:102770001a2001f0adfa1f211b2001f0a9fa002157
:102780001c2001f0a5fa16211d2001f0a1fa00215c
:102790001e2001f09dfa01211f2001f099fa00216d
:1027a000302001f095fa0021312001f091fa1f212b
:1027b000342001f08dfa0321352001f089fa00213f
:1027c000322001f085fa0021332001f081fadf2167
:1027d000362001f07dfa0121372001f079fa8021bd
:1027e0008e2001f075fafa235b00180000f0bcfba4
:0627f000c046bd4680bd9d
:020000040000fa
:1027f600b0b584b000af0200bb1d1a803b1d0a1c99
:102806001a80632001f017f8bb1d1b88db0a9bb2f8
:10281600dbb2180001f031f8642001f00cf8bb1da2
:102826001b885b11dbb23f221340dbb2180001f0bc
:1028360024f8652000f0ffffbb1d1b88dbb21f22ba
:102846001340dbb2180001f018f8602000f0f3ff27
:102856003b1d1b88db0a9bb2dbb2180001f00df8aa
:10286600612000f0e8ff3b1d1b885b11dbb23f22b5
:102876001340dbb2180001f000f8622000f0dbff25
:102886003b1d1b88dbb21f221340dbb2180000f091
:10289600f4ff222000f0cfff0f257c1901f073f81a
:1028a6000300237028003b183a18127840218a4307
:1028b6001a703b181b78180000f0dfffc046bd46b3
:0428c60004b0b0bded
:020000040000fa
:1028ca00f0b40125ed070c005c402c40a446ae0a8a
:1028da004c18df18f4423dd2f74245d2640d4cd071
:1028ea007f0d3cd0e41bc9022943cf0adb022b43ec
:1028fa00db0a0600b61a9f4104d2013cb6197f4191
:10290a00b6185f416812800d241838dd0018844219
:10291a0025d8e80c0021b6197f41b61a9f4103d386
:10292a0040414941f7d304e0b6185f4100184941d4
:10293a00f1d32405b6197f41b61a9f4105d337430f
:10294a00c20717430022012f5041614162461143d9
:10295a00f0bc70470cd100280ad1f74208d20020f7
:10296a00c143490d0905f1e7002a01d1f74206d012
:10297a000020c143090dc904eae77f0df8d0002001
:04298a006146e5e7d6
:020000040000fa
:10298e0010b588293cd015dc81294dd003dc802977
:10299e004ad0002010bd822911d08429f9d119689e
:1029ae00002a26d00a1d1a6000228b5e0360db17f8
:1029be00436011e0a02930d010dc9029e9d11968cc
:1029ce000724002a2ed00919a1430a0008321a60e2
:1029de000b684c68036044600120dbe7c02901d01e
:1029ee00f029d6d11a68111d1960136803600023ef
:1029fe00dee70c1d1c600b689bb203604260ebe7c8
:102a0e001968002a04d00a1d1a600023cb56cde7a0
:102a1e000c1d1c600b68dbb2efe71a68111d196004
:102a2e001368c3e70731cfe71968002a03d00a1de0
:0e2a3e001a600b68bae70c1d1c600b68dde720
:020000040000fa
:102a4c00f0b54b6889b005930b6807009c4607935b
:102a5c00cb680c008e68049310685168cd0f44d07d
:102a6c000b000200002150429941059b002b08db12
:102a7c000222634693430793002d02d1079b5a070a
:102a8c002ad5731e07aa02920a22009301920b0008
:102a9c000200200000f015fb002d02d1079b5a0705
:102aac001ed501382d23002d00d1023b049a13545e
:102abc0023695a1e049b121a1918079b380000939d
:102acc00330000f00dfa7b68db0503d56368984290
:102adc0000da180009b0f0bd1b07db0ff31ad1e7c1
:102aec001b07e5d501382023e0e7059b002bbfda57
:022afc00c4e72d
:020000040000fa
:102b0000002941d010b4041c4c40a44601230022eb
:102b1000002900d54942002800d5404288422cd3e4
:102b200001242407a14204d2814202d209011b01df
:102b3000f8e7e400a14204d2814202d249005b00de
:102b4000f8e7884201d3401a1a434c08a04202d346
:102b5000001b5c0822438c08a04202d3001b9c0887
:102b60002243cc08a04202d3001bdc0822430028e9
:102b700003d01b0901d00909e3e7101c6446002caf
:102b800000d5404210bc704701b5002001f0e4fac6
:102b900002bdc0460029f7d003b5fff7b3ff0ebc56
:082ba0004243891a1847c046a0
:020000040000fa
:102ba80080b500af224b234a1a60214b214a1a6193
:102bb8001f4a44230121d1541d4a45230221d154df
:102bc8001b4a46230121d154194a47230121d154d4
:102bd800174a50230121d154154a51230221d154b7
:102be800134a52230121d154114a53230121d154ac
:102bf8000f4a32230321d1540d4a33233321d154b0
:102c08000b4a38230221d154094a39232221d154ad
:102c1800074980228023db008b50054aca23022102
:102c2800d154034ab5230021d154c046bd4680bdc6
:082c38000044004120000200ed
:020000040000fa
:102c400080b584b002affb1d00221a7038e0bb1db6
:102c500000221a702be0ba1dfb1d12781b78d318c6
:102c6000dbb21a00012313401cd1bb1d1b789bb2a1
:102c70001a1c9200d3189bb29b2292009446634484
:102c80009bb218b2fb1d1b789bb21a1c9200d31882
:102c90009bb2dc339bb219b20023009305230522bb
:102ca00000f050fabb1d1a78bb1d01321a70bb1d13
:102cb0001b78072bcfd9fb1d1a78fb1d01321a7028
:102cc000fb1d1b78072bc2d9c046bd4602b080bd94
:020000040000fa
:102cd00082b090b5c64600b582b000af78600800fb
:102ce000110004221024a4460824a046b844c44479
:102cf00062441360bb1c021c1a803b000a1c1a8031
:102d000004231022944608229046b844c4446344e5
:102d1000ba1c12881a800423102294460822904676
:102d2000b844c44463443a0012885a807a68042341
:102d300010218c4608218846b844c44463441000de
:102d4000190008231a0001f0d1f97868bd4602b0d5
:0c2d500004bc904690bc08bc02b01847c0
:020000040000fa
:102d5c00002934d00123002210b488422cd3012442
:102d6c002407a14204d2814202d209011b01f8e7d7
:102d7c00e400a14204d2814202d249005b00f8e790
:102d8c00884201d3401a1a434c08a04202d3001bbc
:102d9c005c0822438c08a04202d3001b9c082243ef
:102dac00cc08a04202d3001bdc082243002803d02d
:102dbc001b0901d00909e3e7101c10bc704701b5d1
:102dcc00002001f0c3f902bd0029f8d003b5fff7cc
:0c2ddc00c1ff0ebc4243891a1847c046d4
:020000040000fa
:102de80080b586b002aff8603b1d19605a603b1d84
:102df8001b88194a934222d93b1d1a88a5239b0098
:102e08009a421cd83b1d5b88db2b18d93b1d5a887e
:102e180082235b009a4212d8104b01221a70104b81
:102e2800180000f001ff381d3b1d6a465968116003
:102e38001b680a220a21fff747fffff70ff8fa6815
:102e48003b1d1000190008231a0001f04bf9f8681f
:102e5800bd4604b080bdc0466b0200009a00002049
:042e6800ffff000068
:020000040000fa
:102e6c0080b582b000af1c4b9b8c9bb21a4a802160
:102e7c008b439bb29384c046174bdb6810221340e4
:102e8c00102bf9d1154b1b689b0e7b607b683f2b7d
:102e9c0001d07b6800e01f237b607b689b021b04d6
:102eac001a0c0d4b802189000a439a62c0460a4bca
:102ebc00db6810221340102bf9d1074b02229a84a5
:102ecc00c046054bdb6810221340102bf9d1c046cd
:102edc00bd4602b080bdc0460008004024608000a2
:020000040000fa
:102eec00f0b51d00012389b014000e9a06001a409b
:102efc000391029201d1a5420ad822000399300015
:102f0c0000f0a8ffa54203d82500280009b0f0bda9
:102f1c002f1b01973a00102f00d91022202104a852
:102f2c0001f0e8f8019b0f2b0ed80f2204a93a40b0
:102f3c00300000f08fff029b002be6d1220003999a
:102f4c00300000f087ffe0e7102204a9300000f009
:0a2f5c0081ff019b103b0193e4e7a5
:020000040000fa
:102f680080b588b000af78600023fb61184b5b68c0
:102f780001333b617b68174a5343fb60144b1b6862
:102f880001221340012b1ed1114b9b687b6116e077
:102f98000f4b9b68bb607a69bb68d31abb61ba6880
:102fa8007b699a4205d93a69bb68d31a7a69d318fa
:102fb800bb61bb687b61fa69bb69d318fb61fa69bd
:102fc800fb689a42e4d3c046bd4608b080bdc046ff
:082fd80010e000e080bb0000e6
:020000040000fa
:102fe00080b584b000af184994228023db008b5059
:102ff0006420fff7b9ff144998228023db008b502f
:103000006420fff7b1ff3b00104a1a603b0000222a
:103010005a603b0000229a603b000022da600c4ab2
:103020003b0011001800fff725fafff779fb3b0082
:10303000084a1a60064a3b0011001800fff71afa06
:10304000c046bd4604b080bd0044004148e80100d0
:08305000006cdc0280841e000c
:020000040000fa
:10305800b0b586b002af78600a00fb1c1a7027e092
:103068000f257b191b78db007a68d3181b8818b2e8
:103078007b191b78db007a68d3185b8819b27b1937
:103088001b78db007a68d3189b881cb27b191b78e5
:10309800db007a68d318db881ab200230093130088
:1030a800220000f04bf87b191a787b1901321a704c
:1030b8000f23fa18fb1c12781b789a42d0d3c0460b
:0630c800bd4604b0b0bdde
:020000040000fa
:1030ce00f7b5040019000a9fe368666800933b6831
:1030de00100001932369013b1c00002e00da01262b
:1030ee000022009dea5435000123002c03dc002b46
:1030fe001cd02000febd02000a4309d1002d07dcc2
:10310e00089a921b5219002af1dd019a9207eed508
:10311e00099b099adb1700f072fc8c460099013c62
:10312e00130030320a55013d6146dee710233a683e
:06313e009a433a60dde750
:020000040000fa
:10314400b0b584b002af05000c0010001900bb1d1f
:103154002a1c1a803b1d221c1a80bb1c021c1a80cc
:103164003b000a1c1a80bb1d1a88bb1c1b88d31881
:103174009bb2013b9bb21cb23b1d1a883b001b88cf
:10318400d3189bb2013b9bb21ab23b1d0021595e7e
:10319400bb1d0020185e012301931823fb181b8814
:1031a400009313002200fef71bffc046bd4602b089
:0231b400b0bdac
:020000040000fa
:1031b600b0b584b000af0200fb1d1a70fb1d1b7872
:1031c600032b02d9fb1d03221a70222000f033fbc9
:1031d6000f257c1900f0d7fb0300237028003b184d
:1031e6003a1812780f218a431a70fb1d1b789b0030
:1031f6005ab23b181b785bb213435ab23b181a708b
:103206003b183918fa1d097812780a431a703b18c8
:103216001b78180000f031fbc046bd4604b0b0bdb7
:020000040000fa
:1032280080b584b000aff8603b1d19605a603b1d43
:103238001b8818b23b1d5b8819b2134b0a2200f099
:103248001bfa3b1d04229b5e9ab23b1d1a803b1d54
:1032580006229b5e9ab23b1d5a803b1d1b8818b202
:103268003b1d5b8819b200230a2200f005fafa68b0
:103278003b1d1000190008231a0000f033fff868fe
:0c328800bd4604b080bdc046ffff000042
:020000040000fa
:1032940080b582b000af0200bb1d1a803b1d0a1c22
:1032a4001a802a2000f0c8fabb1d1b88dbb2180064
:1032b40000f0e4fa2b2000f0bffabb1d1b881b0aa8
:1032c4009bb2dbb2180000f0d9fa2c2000f0b4fa5b
:1032d4003b1d1b88dbb2180000f0d0fa2d2000f053
:1032e400abfa3b1d1b881b0a9bb2dbb2180000f033
:0a32f400c5fac046bd4602b080bd19
:020000040000fa
:1032fe0010b584291fd007dc812915d0822922d050
:10330e00802911d0002010bd90291cd008dc8829fe
:10331e00f8d119680c1d1c600b6803601a7010e060
:10332e00a02901d0c029edd119680c1d1c600b68b5
:10333e0003601a6005e019680c1d1c600b680360c1
:10334e001a800120dfe719680c1d1c600b680360f2
:08335e001a60d2175a60f4e76f
:020000040000fa
:1033680080b582b000afbb1d00221a803b1d002231
:103378001a80114b1a88114b1b88d31a9ab2bb1d9d
:103388001a800d4b5a880e4b1b88d31a9ab23b1dd4
:103398001a80bb1d1b88ba1d128853439ab23b1d65
:1033a8001b88391d09884b439bb2d3189bb21bb2ab
:1033b8001800bd4602b080bd6402002086000020cf
:0433c8009800002049
:020000040000fa
:1033cc0090b583b000af402000f032fafc1d00f045
:1033dc00d7fa03002370fb1dfa1d12788021494295
:1033ec000a431a70fb1d1b78180000f043fa2120c9
:1033fc0000f01efafc1d00f0c3fa03002370fb1d45
:10340c00fa1d12785f210a401a70fb1d1b781800f8
:0c341c0000f030fac046bd4603b090bd81
:020000040000fa
:1034280000230e4a10b513600d4a13600d4a13604d
:103438000d4a13600d4a13600d4a5362136101333c
:103448009360fff712f8fff710f80a4c0a4b9c42fa
:1034580000d310bd08cc9847f8e7c046900000207c
:103468000c000020080000200000002004000020bc
:0c34780010000020bc000000c00000009c
:020000040000fa
:1034840080b500af114b01221a80c0460f4bdb7b85
:10349400dbb25bb2002bf9db0c4bcc22d2001a80de
:1034a4000a4b0b4a1a83094b3b229a73094b00229d
:1034b4001a60064b01225a73c046044bdb7bdbb215
:1034c4005bb2002bf9dbc046bd4680bd002c004238
:0834d400a50e000078000020a5
:020000040000fa
:1034dc0080b500af00f004fd00f062f900f084f953
:1034ec00fff778fd012000f01bfc012000f02ffc01
:1034fc000a21012000f043f8c82000f021fd084b00
:10350c00180000f08ffb074b39211800fff79efdc8
:10351c00fff790fb00f060fcc046bd4680bdc04686
:08352c00ffff00009c000020dd
:020000040000fa
:1035340090b585b000af78600a00bb1c1a800220e9
:1035440000f07af90e23fb1800221a8010e00e24f2
:103554003b191b887a68d3181b78180000f08ef981
:103564000120fff7fffc3b191a883b1901321a802e
:103574000e23fa18bb1c12881b889a42e7d3c04654
:06358400bd4605b090bd3c
:020000040000fa
:10358a0080b582b000af0200fb1d1a70bb1d0a1c79
:10359a001a70fb1d1b78002b0fd0bb1d1b785bb26a
:1035aa000f2213405bb28022524213435bb2dbb25a
:1035ba0019008a2000f087fb08e0bb1d1b780f2248
:1035ca001340dbb219008a2000f07dfbc046bd46dd
:0435da0002b080bdfe
:020000040000fa
:1035e00080b500af00f064fdfff740fc00f0e4fba5
:1035f000084b094a5a80074b084a5a80054b084a2b
:103600005a80084b084a1a62084b00221a62c046c8
:10361000bd4680bd000c0040144000001540000075
:103620001b400000000400400c080100000800409e
:020000040000fa
:1036300030b51500012289b0524201920432ff32a6
:103640000292002800d16846002403900491a14210
:1036500000d04c1e0594002906da4f220120074baa
:1036600040421a6009b030bd0022079002700690f7
:103670001a00290001a800f0dffcf3e79400002005
:020000040000fa
:10368000b0b584b002af05000c0010001900bb1dde
:103690002a1c1a803b1d221c1a80bb1c021c1a808b
:1036a0003b000a1c1a803b001c88bb1c00229a5e4f
:1036b0003b1d0021595ebb1d0020185e01230093b5
:0e36c0002300fef755fec046bd4602b0b0bd69
:020000040000fa
:1036d00010b50e4b0e4a934207d30e4801680029dd
:1036e00007d14368002b04d110bd002119700133ac
:1036f000f1e704008368084a9bb20c349b009b5896
:1037000042682000984780002018e7e7000000206a
:0c37100000000020f8120000d84000006b
:020000040000fa
:10371c0010b5064c2378002b07d1054b002b02d09b
:10372c00044800e000bf0123237010bd50000020ae
:10373c000000000000000000044b10b5002b03d06b
:10374c000349044800e000bf10bdc0460000000063
:08375c005400002000000000f1
:020000040000fa
:1037640010b50a4b98470a4b9847fff7afff094b30
:10377400ff229343084a9360084b9847084b9847a5
:10378400084b984700f0c0fbfee7c0462b21000021
:103794002b2100000000000000ed00e029340000af
:0837a4002b2100002b21000085
:020000040000fa
:1037ac0080b582b000af002000f0dafb03001a00f5
:1037bc003b1d1a703b1d00225a703b1d00229a7053
:1037cc00084b20225a613a00381d03230321fdf7d0
:1037dc00c7ff044b20229a613b009b781800bd4622
:0837ec0002b080bd0044004161
:020000040000fa
:1037f40080b582b000af3b000d4a11681960928811
:103804009a80fff7d1ff0300902b0cd1094b2022a3
:103814005a613b000621180000f056fb054b20229c
:103824009a61002300e001231800bd4602b080bd68
:08383400344100000044004192
:020000040000fa
:10383c0080b584b000af0200fb1d1a700c4b8022c7
:10384c0092025a610c217b1880221a707b18fa1d87
:10385c0012785a707b180221180000f021fb044bdf
:10386c00802292029a61c046bd4604b080bdc0461b
:04387c0000440041c3
:020000040000fa
:1038800080b584b000af0200fb1d1a700c4b802283
:1038900092025a610c217b1800221a707b18fa1dc3
:1038a00012785a707b180221180000f0fffa044bbe
:1038b000802292029a61c046bd4604b080bdc046d7
:0438c000004400417f
:020000040000fa
:1038c40030b401256d054c00e54215d85c00e54295
:1038d40012d80c001c436400044314430fd005d2d7
:1038e40082428b418041013030bc70479042994103
:1038f4008041013030bc7047002030bc704701204b
:0439040030bc70471c
:020000040000fa
:1039080030b401256d054c00e54215d85c00e54250
:1039180012d80c001c436400044314430fd005d292
:10392800904299418041013030bc704782428b41be
:103938008041013030bc7047002030bc7047012006
:0439480030bc7047d8
:020000040000fa
:10394c0080b582b000af0c4afb1d927b1a700a4bfb
:10395c003b229a73094b1b68002b09d0074b5b6801
:10396c003b60064b1b683968fa1d127810009847ab
:10397c00c046bd4602b080bd002c0042780000203d
:020000040000fa
:10398c0080b582b000af3b1d40221a703b1d002257
:10399c005a700a4b802292025a613a00381d022357
:1039ac000221fdf7dbfd054b802292029a613b0060
:1039bc005b781800bd4602b080bdc0460044004193
:020000040000fa
:1039cc00030010b51a78202a0dd0110009390429ea
:1039dc0009d900212b2a02d02d2a01d10131013322
:1039ec0000200a2404e00133ece760430133801a21
:1039fc001a78303a092af8d9002900d1404210bd72
:020000040000fa
:103a0c00002b11d1002a0fd1002900d1002802d09f
:103a1c000021c943081c07b4024802a140180290b7
:103a2c0003bdc0462907000003b4684601b50298df
:103a3c00fef790fd019b9e4602b00cbc7047c04641
:020000040000fa
:103a4c00b0b584b000af0200fb1d1a70bb1d0a1c80
:103a5c001a700f257c19fb1d1b78180000f049f912
:103a6c00030023707b19ba1d1b7812781340dbb24c
:0e3a7c00002beed101231800bd4604b0b0bdf2
:020000040000fa
:103a8c0080b500af0b4b802292025a60c046094ba6
:103a9c00db69002bfbd1074b0b221a73054b064a33
:103aac001a60c046034bdb69002bfbd1c046bd46f8
:0c3abc0080bdc046000c00420e0001005e
:020000040000fa
:103ac80080b500af0b4b802292025a60c046094b6a
:103ad800db69002bfbd1074bef221a73054b064a13
:103ae8001a60c046034bdb69002bfbd1c046bd46bc
:0c3af80080bdc046000800420e00010026
:020000040000fa
:103b040080b500af0a4b00221a60094b00229a606c
:103b1400074b084a5a60064b06221a60064b0022dd
:103b24009a60054b00221a60c046bd4680bdc0465f
:0c3b340010e000e07fbb00006c000020ef
:020000040000fa
:103b400080b582b000af0b4b5b687b600a4b1b6893
:103b5000084b9b685a1c074b9a60064b1b68002b4e
:103b600004d0044b1b687a6810009847c046bd46d5
:0c3b700002b080bd6c00002010e000e0fe
:020000040000fa
:103b7c0080b582b000af78600b4b06225a60fff71d
:103b8c000df8fff727fd00f097fafff779fffff725
:103b9c0095fffff7b1fffff76ffc00f0f1f9c0469e
:0c3bac00bd4602b080bdc0460040004194
:020000040000fa
:103bb800566963746f727900596f75722054696d14
:103bc8006520776173200000253032643a25303251
:103bd800642c253033640000476f20696e20746fb1
:0c3be80020726573746172740000c046a6
:020000040000fa
:103bf4001c2101231b04984201d3000c10391b0a19
:103c0400984201d3000a08391b09984201d30009dc
:103c1400043902a2105c40187047c0460403020233
:0c3c240001010101000000000000000090
:020000040000fa
:103c300080b584b002af0200bb1d1a80e023ff33c1
:103c40001a00084901230193bb1d1b880093130030
:103c50000a0000210020fef7c5f9c046bd4602b0ab
:083c600080bdc0461f030000f7
:020000040000fa
:103c680080b582b000af0200fb1d1a70fb1d1b78e7
:103c78007f2b09d8fb1d1b781a001f231a40044b01
:103c8800012191400a001a60c046bd4602b080bdbd
:043c980000e100e067
:020000040000fa
:103c9c00f0b5050000200a4a4400a65c002e02d1b3
:103cac0012195078f0bd296801300f78c0b2b742b4
:103cbc0003d112190131507829600a28ebd9f1e7a8
:043ccc00aa3f00000b
:020000040000fa
:103cd00080b582b000af0200fb1d1a70bb1d0a1c2c
:103ce0001a70fb1d1b781800fff7a8fdbb1d1b7881
:0e3cf0001800fff7c5fdc046bd4602b080bdfe
:020000040000fa
:103cfe00b0b584b000af0200fb1d1a70fb1d1b781f
:103d0e001800fff794fd0f257c19fff738fe03000e
:0e3d1e0023707b191b781800bd4604b0b0bda1
:020000040000fa
:103d2c0080b582b000af0200fb1d1a70fb1d1b7822
:103d3c00002b04d080210120fff7c4ff03e00021f9
:0e3d4c000120fff7bfffc046bd4602b080bd9c
:020000040000fa
:103d5a0080b582b000af0200fb1d1a70fb1d1b78f4
:103d6a00002b04d00121c720fff7adff03e000219b
:0e3d7a00c720fff7a8ffc046bd4602b080bdbf
:020000040000fa
:103d88004a0010d2520d03231b02ff33d21a0ad461
:103d980052421f3209d4400dc90208430123db07f0
:0e3da8001843d040704700207047d017704776
:020000040000fa
:103db80080b500af074b084a5a60c046054b5b7890
:103dc800dbb21a0080231340802bf7d0c046bd46d3
:0c3dd80080bdc046000c00400007010048
:020000040000fa
:103de40080b500af084b1b889bb2074a02210b43e6
:103df4009bb21380c046044bdb7bdbb25bb2002b6f
:0c3e0400f9dbc046bd4680bd002c00422a
:020000040000fa
:103e1000002380290fdb812901dd83290bd10721b4
:103e2000136807338b431900083111601a685b6807
:0a3e30000260436001231800704790
:020000040000fa
:103e3a0080b500af0b218820fff745ff0120fff76f
:103e4a008ef802218920fff73eff0120fff787f84d
:063e5a00c046bd4680bd1c
:020000040000fa
:103e600070b505690400954200d915002a00606903
:103e700000f03cf9226963695b19551b002225613a
:063e800063611a7070bdc1
:020000040000fa
:103e880080b582b000af78603960054b7a681a60f7
:103e9800034b3a685a60c046bd4602b080bdc04672
:043ea800780000207e
:020000040000fa
:103eac0080b582b000af78603960396878680023db
:103ebc000022fdf753fb03001800bd4602b080bd85
:020000040000fa
:103ecc0080b582b000af78603960396878680023bb
:103edc000022fdf745fc03001800bd4602b080bd72
:020000040000fa
:103eec0080b500af054b00229a60044b1a68034b57
:103efc0001210a431a60c046bd4680bd10e000e0b7
:020000040000fa
:103f0c0080b500af0020fff733fe044b00211800f2
:103f1c00fff7b4fffff7dcfafee7c046391b0000e1
:020000040000fa
:103f2c0072020000d4030000220500006a060000a3
:103f3c00bc07000002090000480a00009c0b0000ae
:020000040000fa
:103f4c0080b582b000af0200fb1d1a70fb1d1b7800
:103f5c0019008b20fff7b6fec046bd4602b080bdef
:020000040000fa
:103f6c0080b582b000af0200fb1d1a70fb1d1b78e0
:103f7c00802252421343dbb21800bd4602b080bd12
:020000040000fa
:103f8c0080b500afbff35f8f62b603211220fef73e
:0e3f9c0053fb1220fff762fec046bd4680bdfb
:020000040000fa
:103faa0068076c094c836a9074a07ac0008068889c
:0e3fba0000846c820081286e696c290025004d
:020000040000fa
:103fc800002310b5934206d103201840421e9041a9
:0e3fd8009b08c01810bdc45ccc540133f2e746
:020000040000fa
:103fe800054b004206d5404200b5984708bc01225f
:0c3ff800d20711431847000005400000ec
:020000040000fa
:1040040042221201033a010007d002d4013a0018f7
:0c401400fcd51205c30a4005991870473e
:020000040000fa
:104020000378002b06d0030001331a78002afbd155
:08403000181a70470020fce79c
:020000040000fa
:1040380013b50400019201aafcf780fe6368db0651
:0840480001d50120404216bd24
:020000040000fa
:10405000d0400b1cd1409c46203ad34018435242da
:084060006346934018437047ca
:020000040000fa
:104068009140031c90409c46203a93401943524289
:084078006346d3401943704771
:020000040000fa
:1040800010b5002903d1fff7b5fd203002e0081c70
:08409000fff7b0fd10bdc046b2
:020000040000fa
:104098000cb407b504ab04cb0193fff7c5fa03b022
:0640a80008bc02b018473d
:020000040000fa
:1040b00080b500af024b00229a61c046bd4680bd6c
:0440c00000080040b4
:020000040000fa
:1040c40080b500af024b82225a60c046bd4680bd17
:0440d4000040004167
:020000040000fa
:1040d80015410000c93f0000494100004941000066
:0440e800494100004a
:020000040000fa
:1040ec0010b5002a05d00023cc5cc4540133934294
:0440fc00fad110bd28
:020000040000fa
:10410000002a06d00300c9b2821819700133934205
:04411000fbd1704728
:020000040000fa
:104114008a18914201d10020704700230b700131ad
:02412400f7e7bb
:020000040000fa
:0e4126000300413b192b01d82023184370479a
:020000040000fa
:0841340019e21a381b04c04611
:020000040000fa
:06413c0080b500affee7b4
:020000040000fa
:0641420080b500affee7ae
:020000040000fa
:04414800002070479c
:020000040000fa
:04414c000020704798
:020000040000fa
:044150000020704794
:020000040000fa
:044154000020704790
:020000040000fa
:044158007047c046a6
:020000040000fa
:0200000400807a
:0440000077c700d8a6
:020000040000fa
:0200000400807a
:044004005c00ffff5e
:00000001FF
